{
  "_format": "hh-sol-artifact-1",
  "contractName": "MyToken",
  "sourceName": "contracts/MyToken.sol",
  "abi": [
    {
      "inputs": [],
      "stateMutability": "nonpayable",
      "type": "constructor"
    },
    {
      "anonymous": false,
      "inputs": [
        {
          "indexed": true,
          "internalType": "address",
          "name": "owner",
          "type": "address"
        },
        {
          "indexed": true,
          "internalType": "address",
          "name": "spender",
          "type": "address"
        },
        {
          "indexed": false,
          "internalType": "uint256",
          "name": "value",
          "type": "uint256"
        }
      ],
      "name": "Approval",
      "type": "event"
    },
    {
      "anonymous": false,
      "inputs": [
        {
          "indexed": true,
          "internalType": "address",
          "name": "from",
          "type": "address"
        },
        {
          "indexed": true,
          "internalType": "address",
          "name": "to",
          "type": "address"
        },
        {
          "indexed": false,
          "internalType": "uint256",
          "name": "value",
          "type": "uint256"
        }
      ],
      "name": "Transfer",
      "type": "event"
    },
    {
      "inputs": [],
      "name": "accumulatedFees",
      "outputs": [
        {
          "internalType": "uint256",
          "name": "",
          "type": "uint256"
        }
      ],
      "stateMutability": "view",
      "type": "function"
    },
    {
      "inputs": [
        {
          "internalType": "address",
          "name": "owner",
          "type": "address"
        },
        {
          "internalType": "address",
          "name": "spender",
          "type": "address"
        }
      ],
      "name": "allowance",
      "outputs": [
        {
          "internalType": "uint256",
          "name": "",
          "type": "uint256"
        }
      ],
      "stateMutability": "view",
      "type": "function"
    },
    {
      "inputs": [
        {
          "internalType": "address",
          "name": "spender",
          "type": "address"
        },
        {
          "internalType": "uint256",
          "name": "amount",
          "type": "uint256"
        }
      ],
      "name": "approve",
      "outputs": [
        {
          "internalType": "bool",
          "name": "",
          "type": "bool"
        }
      ],
      "stateMutability": "nonpayable",
      "type": "function"
    },
    {
      "inputs": [
        {
          "internalType": "address",
          "name": "account",
          "type": "address"
        }
      ],
      "name": "balanceOf",
      "outputs": [
        {
          "internalType": "uint256",
          "name": "",
          "type": "uint256"
        }
      ],
      "stateMutability": "view",
      "type": "function"
    },
    {
      "inputs": [],
      "name": "decimals",
      "outputs": [
        {
          "internalType": "uint8",
          "name": "",
          "type": "uint8"
        }
      ],
      "stateMutability": "view",
      "type": "function"
    },
    {
      "inputs": [
        {
          "internalType": "address",
          "name": "spender",
          "type": "address"
        },
        {
          "internalType": "uint256",
          "name": "subtractedValue",
          "type": "uint256"
        }
      ],
      "name": "decreaseAllowance",
      "outputs": [
        {
          "internalType": "bool",
          "name": "",
          "type": "bool"
        }
      ],
      "stateMutability": "nonpayable",
      "type": "function"
    },
    {
      "inputs": [],
      "name": "feePercent",
      "outputs": [
        {
          "internalType": "uint256",
          "name": "",
          "type": "uint256"
        }
      ],
      "stateMutability": "view",
      "type": "function"
    },
    {
      "inputs": [],
      "name": "getAccumulatedFees",
      "outputs": [
        {
          "internalType": "uint256",
          "name": "",
          "type": "uint256"
        }
      ],
      "stateMutability": "view",
      "type": "function"
    },
    {
      "inputs": [],
      "name": "getFeePercent",
      "outputs": [
        {
          "internalType": "uint256",
          "name": "",
          "type": "uint256"
        }
      ],
      "stateMutability": "view",
      "type": "function"
    },
    {
      "inputs": [
        {
          "internalType": "address",
          "name": "spender",
          "type": "address"
        },
        {
          "internalType": "uint256",
          "name": "addedValue",
          "type": "uint256"
        }
      ],
      "name": "increaseAllowance",
      "outputs": [
        {
          "internalType": "bool",
          "name": "",
          "type": "bool"
        }
      ],
      "stateMutability": "nonpayable",
      "type": "function"
    },
    {
      "inputs": [],
      "name": "name",
      "outputs": [
        {
          "internalType": "string",
          "name": "",
          "type": "string"
        }
      ],
      "stateMutability": "view",
      "type": "function"
    },
    {
      "inputs": [],
      "name": "symbol",
      "outputs": [
        {
          "internalType": "string",
          "name": "",
          "type": "string"
        }
      ],
      "stateMutability": "view",
      "type": "function"
    },
    {
      "inputs": [],
      "name": "totalSupply",
      "outputs": [
        {
          "internalType": "uint256",
          "name": "",
          "type": "uint256"
        }
      ],
      "stateMutability": "view",
      "type": "function"
    },
    {
      "inputs": [
        {
          "internalType": "address",
          "name": "recipient",
          "type": "address"
        },
        {
          "internalType": "uint256",
          "name": "amount",
          "type": "uint256"
        }
      ],
      "name": "transfer",
      "outputs": [
        {
          "internalType": "bool",
          "name": "",
          "type": "bool"
        }
      ],
      "stateMutability": "nonpayable",
      "type": "function"
    },
    {
      "inputs": [],
      "name": "transferAccumulatedFees",
      "outputs": [],
      "stateMutability": "nonpayable",
      "type": "function"
    },
    {
      "inputs": [
        {
          "internalType": "address",
          "name": "sender",
          "type": "address"
        },
        {
          "internalType": "address",
          "name": "recipient",
          "type": "address"
        },
        {
          "internalType": "uint256",
          "name": "amount",
          "type": "uint256"
        }
      ],
      "name": "transferFrom",
      "outputs": [
        {
          "internalType": "bool",
          "name": "",
          "type": "bool"
        }
      ],
      "stateMutability": "nonpayable",
      "type": "function"
    },
    {
      "inputs": [
        {
          "internalType": "address",
          "name": "to",
          "type": "address"
        },
        {
          "internalType": "uint256",
          "name": "amount",
          "type": "uint256"
        }
      ],
      "name": "transferWithFees",
      "outputs": [],
      "stateMutability": "nonpayable",
      "type": "function"
    },
    {
      "inputs": [
        {
          "internalType": "uint256",
          "name": "newFeePercent",
          "type": "uint256"
        }
      ],
      "name": "updateFeePercent",
      "outputs": [],
      "stateMutability": "nonpayable",
      "type": "function"
    }
  ],
  "bytecode": "0x60806040523480156200001157600080fd5b506040518060400160405280600781526020017f4d79546f6b656e000000000000000000000000000000000000000000000000008152506040518060400160405280600381526020017f4d544e000000000000000000000000000000000000000000000000000000000081525081600390805190602001906200009692919062000351565b508060049080519060200190620000af92919062000351565b505050620000fd6040518060400160405280600e81526020017f496e20636f6e7374727563746f72000000000000000000000000000000000000815250620001df60201b62000eed1760201c565b620001496040518060400160405280601181526020017f4f776e657220616464726573733a202573000000000000000000000000000000815250336200028260201b62000f861760201c565b6001600581905550620f4240600860003373ffffffffffffffffffffffffffffffffffffffff1673ffffffffffffffffffffffffffffffffffffffff1681526020019081526020016000208190555033600760006101000a81548173ffffffffffffffffffffffffffffffffffffffff021916908373ffffffffffffffffffffffffffffffffffffffff160217905550620005a7565b6200027f81604051602401620001f6919062000453565b6040516020818303038152906040527f41304fac000000000000000000000000000000000000000000000000000000007bffffffffffffffffffffffffffffffffffffffffffffffffffffffff19166020820180517bffffffffffffffffffffffffffffffffffffffffffffffffffffffff83818316178352505050506200032860201b60201c565b50565b6200032482826040516024016200029b92919062000477565b6040516020818303038152906040527f319af333000000000000000000000000000000000000000000000000000000007bffffffffffffffffffffffffffffffffffffffffffffffffffffffff19166020820180517bffffffffffffffffffffffffffffffffffffffffffffffffffffffff83818316178352505050506200032860201b60201c565b5050565b60008151905060006a636f6e736f6c652e6c6f679050602083016000808483855afa5050505050565b8280546200035f9062000531565b90600052602060002090601f016020900481019282620003835760008555620003cf565b82601f106200039e57805160ff1916838001178555620003cf565b82800160010185558215620003cf579182015b82811115620003ce578251825591602001919060010190620003b1565b5b509050620003de9190620003e2565b5090565b5b80821115620003fd576000816000905550600101620003e3565b5090565b6200040c81620004c7565b82525050565b60006200041f82620004ab565b6200042b8185620004b6565b93506200043d818560208601620004fb565b620004488162000596565b840191505092915050565b600060208201905081810360008301526200046f818462000412565b905092915050565b6000604082019050818103600083015262000493818562000412565b9050620004a4602083018462000401565b9392505050565b600081519050919050565b600082825260208201905092915050565b6000620004d482620004db565b9050919050565b600073ffffffffffffffffffffffffffffffffffffffff82169050919050565b60005b838110156200051b578082015181840152602081019050620004fe565b838111156200052b576000848401525b50505050565b600060028204905060018216806200054a57607f821691505b6020821081141562000561576200056062000567565b5b50919050565b7f4e487b7100000000000000000000000000000000000000000000000000000000600052602260045260246000fd5b6000601f19601f8301169050919050565b6120d080620005b76000396000f3fe608060405234801561001057600080fd5b50600436106101165760003560e01c80635df45a37116100a2578063a457c2d711610071578063a457c2d7146102d3578063a9059cbb14610303578063be74264d14610333578063dd62ed3e14610351578063f05c5fed1461038157610116565b80635df45a371461024957806370a08231146102675780637fd6f15c1461029757806395d89b41146102b557610116565b806323b872dd116100e957806323b872dd146101915780632edc5052146101c1578063313ce567146101dd57806339509351146101fb578063587f5ed71461022b57610116565b80630392e72d1461011b57806306fdde0314610125578063095ea7b31461014357806318160ddd14610173575b600080fd5b61012361039d565b005b61012d6105cc565b60405161013a9190611909565b60405180910390f35b61015d600480360381019061015891906116d1565b61065e565b60405161016a91906118ee565b60405180910390f35b61017b61067c565b6040516101889190611af7565b60405180910390f35b6101ab60048036038101906101a6919061167e565b610686565b6040516101b891906118ee565b60405180910390f35b6101db60048036038101906101d691906116d1565b61077e565b005b6101e5610a53565b6040516101f29190611b12565b60405180910390f35b610215600480360381019061021091906116d1565b610a5c565b60405161022291906118ee565b60405180910390f35b610233610b08565b6040516102409190611af7565b60405180910390f35b610251610b0e565b60405161025e9190611af7565b60405180910390f35b610281600480360381019061027c9190611611565b610b18565b60405161028e9190611af7565b60405180910390f35b61029f610b60565b6040516102ac9190611af7565b60405180910390f35b6102bd610b66565b6040516102ca9190611909565b60405180910390f35b6102ed60048036038101906102e891906116d1565b610bf8565b6040516102fa91906118ee565b60405180910390f35b61031d600480360381019061031891906116d1565b610ce3565b60405161032a91906118ee565b60405180910390f35b61033b610d01565b6040516103489190611af7565b60405180910390f35b61036b6004803603810190610366919061163e565b610d0b565b6040516103789190611af7565b60405180910390f35b61039b60048036038101906103969190611711565b610d92565b005b600760009054906101000a900473ffffffffffffffffffffffffffffffffffffffff1673ffffffffffffffffffffffffffffffffffffffff163373ffffffffffffffffffffffffffffffffffffffff161461042d576040517f08c379a000000000000000000000000000000000000000000000000000000000815260040161042490611a17565b60405180910390fd5b61046e6040518060400160405280601a81526020017f416363756d756c61746564206665657320736f20666172202573000000000000815250600654611022565b6104ec6040518060400160405280601381526020017f50726576696f75732062616c616e636520257300000000000000000000000000815250600860003373ffffffffffffffffffffffffffffffffffffffff1673ffffffffffffffffffffffffffffffffffffffff16815260200190815260200160002054611022565b600654600860003373ffffffffffffffffffffffffffffffffffffffff1673ffffffffffffffffffffffffffffffffffffffff168152602001908152602001600020600082825461053d9190611b49565b9250508190555060006006819055506105ca6040518060400160405280601281526020017f43757272656e742062616c616e63652025730000000000000000000000000000815250600860003373ffffffffffffffffffffffffffffffffffffffff1673ffffffffffffffffffffffffffffffffffffffff16815260200190815260200160002054611022565b565b6060600380546105db90611ce6565b80601f016020809104026020016040519081016040528092919081815260200182805461060790611ce6565b80156106545780601f1061062957610100808354040283529160200191610654565b820191906000526020600020905b81548152906001019060200180831161063757829003601f168201915b5050505050905090565b600061067261066b6110be565b84846110c6565b6001905092915050565b6000600254905090565b6000610693848484611291565b6000600160008673ffffffffffffffffffffffffffffffffffffffff1673ffffffffffffffffffffffffffffffffffffffff16815260200190815260200160002060006106de6110be565b73ffffffffffffffffffffffffffffffffffffffff1673ffffffffffffffffffffffffffffffffffffffff1681526020019081526020016000205490508281101561075e576040517f08c379a000000000000000000000000000000000000000000000000000000000815260040161075590611a57565b60405180910390fd5b6107728561076a6110be565b8584036110c6565b60019150509392505050565b80600860003373ffffffffffffffffffffffffffffffffffffffff1673ffffffffffffffffffffffffffffffffffffffff168152602001908152602001600020541015610800576040517f08c379a00000000000000000000000000000000000000000000000000000000081526004016107f790611ab7565b60405180910390fd5b61087e6040518060400160405280601b81526020017f53656e6465722062616c616e636520697320257320746f6b656e730000000000815250600860003373ffffffffffffffffffffffffffffffffffffffff1673ffffffffffffffffffffffffffffffffffffffff16815260200190815260200160002054611022565b6108bf6040518060400160405280602081526020017f466565732064656475637465642077696c6c2062652025732070657263656e74815250600554611022565b61091b6040518060400160405280602081526020017f25732070657263656e74206f6620257320746f6b656e73203d202573204d544e81525060055483606460055461090b9190611b9f565b856109169190611bd0565b611512565b6109616040518060600160405280603681526020016120656036913960646005546109469190611b9f565b836109519190611bd0565b8361095c9190611c2a565b611022565b60646005546109709190611b9f565b8161097b9190611bd0565b6006600082825461098c9190611b49565b9250508190555080600860003373ffffffffffffffffffffffffffffffffffffffff1673ffffffffffffffffffffffffffffffffffffffff16815260200190815260200160002060008282546109e29190611c2a565b92505081905550600654816109f79190611c2a565b905080600860008473ffffffffffffffffffffffffffffffffffffffff1673ffffffffffffffffffffffffffffffffffffffff1681526020019081526020016000206000828254610a489190611b49565b925050819055505050565b60006012905090565b6000610afe610a696110be565b848460016000610a776110be565b73ffffffffffffffffffffffffffffffffffffffff1673ffffffffffffffffffffffffffffffffffffffff16815260200190815260200160002060008873ffffffffffffffffffffffffffffffffffffffff1673ffffffffffffffffffffffffffffffffffffffff16815260200190815260200160002054610af99190611b49565b6110c6565b6001905092915050565b60065481565b6000600654905090565b60008060008373ffffffffffffffffffffffffffffffffffffffff1673ffffffffffffffffffffffffffffffffffffffff168152602001908152602001600020549050919050565b60055481565b606060048054610b7590611ce6565b80601f0160208091040260200160405190810160405280929190818152602001828054610ba190611ce6565b8015610bee5780601f10610bc357610100808354040283529160200191610bee565b820191906000526020600020905b815481529060010190602001808311610bd157829003601f168201915b5050505050905090565b60008060016000610c076110be565b73ffffffffffffffffffffffffffffffffffffffff1673ffffffffffffffffffffffffffffffffffffffff16815260200190815260200160002060008573ffffffffffffffffffffffffffffffffffffffff1673ffffffffffffffffffffffffffffffffffffffff16815260200190815260200160002054905082811015610cc4576040517f08c379a0000000000000000000000000000000000000000000000000000000008152600401610cbb90611ad7565b60405180910390fd5b610cd8610ccf6110be565b858584036110c6565b600191505092915050565b6000610cf7610cf06110be565b8484611291565b6001905092915050565b6000600554905090565b6000600160008473ffffffffffffffffffffffffffffffffffffffff1673ffffffffffffffffffffffffffffffffffffffff16815260200190815260200160002060008373ffffffffffffffffffffffffffffffffffffffff1673ffffffffffffffffffffffffffffffffffffffff16815260200190815260200160002054905092915050565b600760009054906101000a900473ffffffffffffffffffffffffffffffffffffffff1673ffffffffffffffffffffffffffffffffffffffff163373ffffffffffffffffffffffffffffffffffffffff1614610e22576040517f08c379a0000000000000000000000000000000000000000000000000000000008152600401610e1990611a17565b60405180910390fd5b610e636040518060400160405280601381526020017f4f6c64206665652070657263656e743a20257300000000000000000000000000815250600554611022565b610ea26040518060400160405280601381526020017f4e6577206665652070657263656e743a2025730000000000000000000000000081525082611022565b80600581905550610eea6040518060400160405280601781526020017f55706461746564206665652070657263656e743a202573000000000000000000815250600554611022565b50565b610f8381604051602401610f019190611909565b6040516020818303038152906040527f41304fac000000000000000000000000000000000000000000000000000000007bffffffffffffffffffffffffffffffffffffffffffffffffffffffff19166020820180517bffffffffffffffffffffffffffffffffffffffffffffffffffffffff83818316178352505050506115b4565b50565b61101e8282604051602401610f9c92919061192b565b6040516020818303038152906040527f319af333000000000000000000000000000000000000000000000000000000007bffffffffffffffffffffffffffffffffffffffffffffffffffffffff19166020820180517bffffffffffffffffffffffffffffffffffffffffffffffffffffffff83818316178352505050506115b4565b5050565b6110ba828260405160240161103892919061195b565b6040516020818303038152906040527f9710a9d0000000000000000000000000000000000000000000000000000000007bffffffffffffffffffffffffffffffffffffffffffffffffffffffff19166020820180517bffffffffffffffffffffffffffffffffffffffffffffffffffffffff83818316178352505050506115b4565b5050565b600033905090565b600073ffffffffffffffffffffffffffffffffffffffff168373ffffffffffffffffffffffffffffffffffffffff161415611136576040517f08c379a000000000000000000000000000000000000000000000000000000000815260040161112d90611a97565b60405180910390fd5b600073ffffffffffffffffffffffffffffffffffffffff168273ffffffffffffffffffffffffffffffffffffffff1614156111a6576040517f08c379a000000000000000000000000000000000000000000000000000000000815260040161119d906119f7565b60405180910390fd5b80600160008573ffffffffffffffffffffffffffffffffffffffff1673ffffffffffffffffffffffffffffffffffffffff16815260200190815260200160002060008473ffffffffffffffffffffffffffffffffffffffff1673ffffffffffffffffffffffffffffffffffffffff168152602001908152602001600020819055508173ffffffffffffffffffffffffffffffffffffffff168373ffffffffffffffffffffffffffffffffffffffff167f8c5be1e5ebec7d5bd14f71427d1e84f3dd0314c0f7b2291e5b200ac8c7c3b925836040516112849190611af7565b60405180910390a3505050565b600073ffffffffffffffffffffffffffffffffffffffff168373ffffffffffffffffffffffffffffffffffffffff161415611301576040517f08c379a00000000000000000000000000000000000000000000000000000000081526004016112f890611a77565b60405180910390fd5b600073ffffffffffffffffffffffffffffffffffffffff168273ffffffffffffffffffffffffffffffffffffffff161415611371576040517f08c379a0000000000000000000000000000000000000000000000000000000008152600401611368906119d7565b60405180910390fd5b61137c8383836115dd565b60008060008573ffffffffffffffffffffffffffffffffffffffff1673ffffffffffffffffffffffffffffffffffffffff16815260200190815260200160002054905081811015611402576040517f08c379a00000000000000000000000000000000000000000000000000000000081526004016113f990611a37565b60405180910390fd5b8181036000808673ffffffffffffffffffffffffffffffffffffffff1673ffffffffffffffffffffffffffffffffffffffff16815260200190815260200160002081905550816000808573ffffffffffffffffffffffffffffffffffffffff1673ffffffffffffffffffffffffffffffffffffffff16815260200190815260200160002060008282546114959190611b49565b925050819055508273ffffffffffffffffffffffffffffffffffffffff168473ffffffffffffffffffffffffffffffffffffffff167fddf252ad1be2c89b69c2b068fc378daa952ba7f163c4a11628f55a4df523b3ef846040516114f99190611af7565b60405180910390a361150c8484846115e2565b50505050565b6115ae8484848460405160240161152c949392919061198b565b6040516020818303038152906040527f08ee5666000000000000000000000000000000000000000000000000000000007bffffffffffffffffffffffffffffffffffffffffffffffffffffffff19166020820180517bffffffffffffffffffffffffffffffffffffffffffffffffffffffff83818316178352505050506115b4565b50505050565b60008151905060006a636f6e736f6c652e6c6f679050602083016000808483855afa5050505050565b505050565b505050565b6000813590506115f681612036565b92915050565b60008135905061160b8161204d565b92915050565b60006020828403121561162757611626611da5565b5b6000611635848285016115e7565b91505092915050565b6000806040838503121561165557611654611da5565b5b6000611663858286016115e7565b9250506020611674858286016115e7565b9150509250929050565b60008060006060848603121561169757611696611da5565b5b60006116a5868287016115e7565b93505060206116b6868287016115e7565b92505060406116c7868287016115fc565b9150509250925092565b600080604083850312156116e8576116e7611da5565b5b60006116f6858286016115e7565b9250506020611707858286016115fc565b9150509250929050565b60006020828403121561172757611726611da5565b5b6000611735848285016115fc565b91505092915050565b61174781611c5e565b82525050565b61175681611c70565b82525050565b600061176782611b2d565b6117718185611b38565b9350611781818560208601611cb3565b61178a81611daa565b840191505092915050565b60006117a2602383611b38565b91506117ad82611dbb565b604082019050919050565b60006117c5602283611b38565b91506117d082611e0a565b604082019050919050565b60006117e8601383611b38565b91506117f382611e59565b602082019050919050565b600061180b602683611b38565b915061181682611e82565b604082019050919050565b600061182e602883611b38565b915061183982611ed1565b604082019050919050565b6000611851602583611b38565b915061185c82611f20565b604082019050919050565b6000611874602483611b38565b915061187f82611f6f565b604082019050919050565b6000611897601183611b38565b91506118a282611fbe565b602082019050919050565b60006118ba602583611b38565b91506118c582611fe7565b604082019050919050565b6118d981611c9c565b82525050565b6118e881611ca6565b82525050565b6000602082019050611903600083018461174d565b92915050565b60006020820190508181036000830152611923818461175c565b905092915050565b60006040820190508181036000830152611945818561175c565b9050611954602083018461173e565b9392505050565b60006040820190508181036000830152611975818561175c565b905061198460208301846118d0565b9392505050565b600060808201905081810360008301526119a5818761175c565b90506119b460208301866118d0565b6119c160408301856118d0565b6119ce60608301846118d0565b95945050505050565b600060208201905081810360008301526119f081611795565b9050919050565b60006020820190508181036000830152611a10816117b8565b9050919050565b60006020820190508181036000830152611a30816117db565b9050919050565b60006020820190508181036000830152611a50816117fe565b9050919050565b60006020820190508181036000830152611a7081611821565b9050919050565b60006020820190508181036000830152611a9081611844565b9050919050565b60006020820190508181036000830152611ab081611867565b9050919050565b60006020820190508181036000830152611ad08161188a565b9050919050565b60006020820190508181036000830152611af0816118ad565b9050919050565b6000602082019050611b0c60008301846118d0565b92915050565b6000602082019050611b2760008301846118df565b92915050565b600081519050919050565b600082825260208201905092915050565b6000611b5482611c9c565b9150611b5f83611c9c565b9250827fffffffffffffffffffffffffffffffffffffffffffffffffffffffffffffffff03821115611b9457611b93611d18565b5b828201905092915050565b6000611baa82611c9c565b9150611bb583611c9c565b925082611bc557611bc4611d47565b5b828204905092915050565b6000611bdb82611c9c565b9150611be683611c9c565b9250817fffffffffffffffffffffffffffffffffffffffffffffffffffffffffffffffff0483118215151615611c1f57611c1e611d18565b5b828202905092915050565b6000611c3582611c9c565b9150611c4083611c9c565b925082821015611c5357611c52611d18565b5b828203905092915050565b6000611c6982611c7c565b9050919050565b60008115159050919050565b600073ffffffffffffffffffffffffffffffffffffffff82169050919050565b6000819050919050565b600060ff82169050919050565b60005b83811015611cd1578082015181840152602081019050611cb6565b83811115611ce0576000848401525b50505050565b60006002820490506001821680611cfe57607f821691505b60208210811415611d1257611d11611d76565b5b50919050565b7f4e487b7100000000000000000000000000000000000000000000000000000000600052601160045260246000fd5b7f4e487b7100000000000000000000000000000000000000000000000000000000600052601260045260246000fd5b7f4e487b7100000000000000000000000000000000000000000000000000000000600052602260045260246000fd5b600080fd5b6000601f19601f8301169050919050565b7f45524332303a207472616e7366657220746f20746865207a65726f206164647260008201527f6573730000000000000000000000000000000000000000000000000000000000602082015250565b7f45524332303a20617070726f766520746f20746865207a65726f20616464726560008201527f7373000000000000000000000000000000000000000000000000000000000000602082015250565b7f43616c6c6572206973206e6f74206f776e657200000000000000000000000000600082015250565b7f45524332303a207472616e7366657220616d6f756e742065786365656473206260008201527f616c616e63650000000000000000000000000000000000000000000000000000602082015250565b7f45524332303a207472616e7366657220616d6f756e742065786365656473206160008201527f6c6c6f77616e6365000000000000000000000000000000000000000000000000602082015250565b7f45524332303a207472616e736665722066726f6d20746865207a65726f20616460008201527f6472657373000000000000000000000000000000000000000000000000000000602082015250565b7f45524332303a20617070726f76652066726f6d20746865207a65726f2061646460008201527f7265737300000000000000000000000000000000000000000000000000000000602082015250565b7f4e6f7420656e6f75676820746f6b656e73000000000000000000000000000000600082015250565b7f45524332303a2064656372656173656420616c6c6f77616e63652062656c6f7760008201527f207a65726f000000000000000000000000000000000000000000000000000000602082015250565b61203f81611c5e565b811461204a57600080fd5b50565b61205681611c9c565b811461206157600080fd5b5056fe546f6b656e7320746f206265207472616e73666572726564206166746572206665657320646564756374696f6e203d202573204d544ea26469706673582212209332506134401163fcc413757fc60ff36d102b90951d9c7d306fc921bf9206d264736f6c63430008070033",
  "linkReferences": {},
  "deployedLinkReferences": {}
}