{
  "_format": "hh-sol-artifact-1",
  "contractName": "MyToken",
  "sourceName": "contracts/MyToken.sol",
  "abi": [
    {
      "inputs": [],
      "stateMutability": "nonpayable",
      "type": "constructor"
    },
    {
      "anonymous": false,
      "inputs": [
        {
          "indexed": true,
          "internalType": "address",
          "name": "owner",
          "type": "address"
        },
        {
          "indexed": true,
          "internalType": "address",
          "name": "spender",
          "type": "address"
        },
        {
          "indexed": false,
          "internalType": "uint256",
          "name": "value",
          "type": "uint256"
        }
      ],
      "name": "Approval",
      "type": "event"
    },
    {
      "anonymous": false,
      "inputs": [
        {
          "indexed": true,
          "internalType": "address",
          "name": "previousOwner",
          "type": "address"
        },
        {
          "indexed": true,
          "internalType": "address",
          "name": "newOwner",
          "type": "address"
        }
      ],
      "name": "OwnershipTransferred",
      "type": "event"
    },
    {
      "anonymous": false,
      "inputs": [
        {
          "indexed": true,
          "internalType": "address",
          "name": "from",
          "type": "address"
        },
        {
          "indexed": true,
          "internalType": "address",
          "name": "to",
          "type": "address"
        },
        {
          "indexed": false,
          "internalType": "uint256",
          "name": "value",
          "type": "uint256"
        }
      ],
      "name": "Transfer",
      "type": "event"
    },
    {
      "inputs": [],
      "name": "accumulatedFees",
      "outputs": [
        {
          "internalType": "uint256",
          "name": "",
          "type": "uint256"
        }
      ],
      "stateMutability": "view",
      "type": "function"
    },
    {
      "inputs": [
        {
          "internalType": "address",
          "name": "owner",
          "type": "address"
        },
        {
          "internalType": "address",
          "name": "spender",
          "type": "address"
        }
      ],
      "name": "allowance",
      "outputs": [
        {
          "internalType": "uint256",
          "name": "",
          "type": "uint256"
        }
      ],
      "stateMutability": "view",
      "type": "function"
    },
    {
      "inputs": [
        {
          "internalType": "address",
          "name": "spender",
          "type": "address"
        },
        {
          "internalType": "uint256",
          "name": "amount",
          "type": "uint256"
        }
      ],
      "name": "approve",
      "outputs": [
        {
          "internalType": "bool",
          "name": "",
          "type": "bool"
        }
      ],
      "stateMutability": "nonpayable",
      "type": "function"
    },
    {
      "inputs": [
        {
          "internalType": "address",
          "name": "account",
          "type": "address"
        }
      ],
      "name": "balanceOf",
      "outputs": [
        {
          "internalType": "uint256",
          "name": "",
          "type": "uint256"
        }
      ],
      "stateMutability": "view",
      "type": "function"
    },
    {
      "inputs": [
        {
          "internalType": "uint256",
          "name": "amount",
          "type": "uint256"
        }
      ],
      "name": "burn",
      "outputs": [],
      "stateMutability": "nonpayable",
      "type": "function"
    },
    {
      "inputs": [
        {
          "internalType": "address",
          "name": "account",
          "type": "address"
        },
        {
          "internalType": "uint256",
          "name": "amount",
          "type": "uint256"
        }
      ],
      "name": "burnFrom",
      "outputs": [],
      "stateMutability": "nonpayable",
      "type": "function"
    },
    {
      "inputs": [],
      "name": "decimals",
      "outputs": [
        {
          "internalType": "uint8",
          "name": "",
          "type": "uint8"
        }
      ],
      "stateMutability": "view",
      "type": "function"
    },
    {
      "inputs": [
        {
          "internalType": "address",
          "name": "spender",
          "type": "address"
        },
        {
          "internalType": "uint256",
          "name": "subtractedValue",
          "type": "uint256"
        }
      ],
      "name": "decreaseAllowance",
      "outputs": [
        {
          "internalType": "bool",
          "name": "",
          "type": "bool"
        }
      ],
      "stateMutability": "nonpayable",
      "type": "function"
    },
    {
      "inputs": [],
      "name": "feePercent",
      "outputs": [
        {
          "internalType": "uint256",
          "name": "",
          "type": "uint256"
        }
      ],
      "stateMutability": "view",
      "type": "function"
    },
    {
      "inputs": [],
      "name": "getAccumulatedFees",
      "outputs": [
        {
          "internalType": "uint256",
          "name": "",
          "type": "uint256"
        }
      ],
      "stateMutability": "view",
      "type": "function"
    },
    {
      "inputs": [],
      "name": "getFeePercent",
      "outputs": [
        {
          "internalType": "uint256",
          "name": "",
          "type": "uint256"
        }
      ],
      "stateMutability": "view",
      "type": "function"
    },
    {
      "inputs": [
        {
          "internalType": "address",
          "name": "spender",
          "type": "address"
        },
        {
          "internalType": "uint256",
          "name": "addedValue",
          "type": "uint256"
        }
      ],
      "name": "increaseAllowance",
      "outputs": [
        {
          "internalType": "bool",
          "name": "",
          "type": "bool"
        }
      ],
      "stateMutability": "nonpayable",
      "type": "function"
    },
    {
      "inputs": [
        {
          "internalType": "address",
          "name": "to",
          "type": "address"
        },
        {
          "internalType": "uint256",
          "name": "amount",
          "type": "uint256"
        }
      ],
      "name": "mint",
      "outputs": [],
      "stateMutability": "nonpayable",
      "type": "function"
    },
    {
      "inputs": [],
      "name": "name",
      "outputs": [
        {
          "internalType": "string",
          "name": "",
          "type": "string"
        }
      ],
      "stateMutability": "view",
      "type": "function"
    },
    {
      "inputs": [],
      "name": "owner",
      "outputs": [
        {
          "internalType": "address",
          "name": "",
          "type": "address"
        }
      ],
      "stateMutability": "view",
      "type": "function"
    },
    {
      "inputs": [],
      "name": "renounceOwnership",
      "outputs": [],
      "stateMutability": "nonpayable",
      "type": "function"
    },
    {
      "inputs": [],
      "name": "symbol",
      "outputs": [
        {
          "internalType": "string",
          "name": "",
          "type": "string"
        }
      ],
      "stateMutability": "view",
      "type": "function"
    },
    {
      "inputs": [],
      "name": "totalSupply",
      "outputs": [
        {
          "internalType": "uint256",
          "name": "",
          "type": "uint256"
        }
      ],
      "stateMutability": "view",
      "type": "function"
    },
    {
      "inputs": [
        {
          "internalType": "address",
          "name": "recipient",
          "type": "address"
        },
        {
          "internalType": "uint256",
          "name": "amount",
          "type": "uint256"
        }
      ],
      "name": "transfer",
      "outputs": [
        {
          "internalType": "bool",
          "name": "",
          "type": "bool"
        }
      ],
      "stateMutability": "nonpayable",
      "type": "function"
    },
    {
      "inputs": [],
      "name": "transferAccumulatedFees",
      "outputs": [],
      "stateMutability": "nonpayable",
      "type": "function"
    },
    {
      "inputs": [
        {
          "internalType": "address",
          "name": "sender",
          "type": "address"
        },
        {
          "internalType": "address",
          "name": "recipient",
          "type": "address"
        },
        {
          "internalType": "uint256",
          "name": "amount",
          "type": "uint256"
        }
      ],
      "name": "transferFrom",
      "outputs": [
        {
          "internalType": "bool",
          "name": "",
          "type": "bool"
        }
      ],
      "stateMutability": "nonpayable",
      "type": "function"
    },
    {
      "inputs": [
        {
          "internalType": "address",
          "name": "newOwner",
          "type": "address"
        }
      ],
      "name": "transferOwnership",
      "outputs": [],
      "stateMutability": "nonpayable",
      "type": "function"
    },
    {
      "inputs": [
        {
          "internalType": "address",
          "name": "to",
          "type": "address"
        },
        {
          "internalType": "uint256",
          "name": "amount",
          "type": "uint256"
        }
      ],
      "name": "transferWithFees",
      "outputs": [
        {
          "internalType": "bool",
          "name": "",
          "type": "bool"
        }
      ],
      "stateMutability": "nonpayable",
      "type": "function"
    },
    {
      "inputs": [
        {
          "internalType": "uint256",
          "name": "newFeePercent",
          "type": "uint256"
        }
      ],
      "name": "updateFeePercent",
      "outputs": [],
      "stateMutability": "nonpayable",
      "type": "function"
    }
  ],
  "bytecode": "0x60806040523480156200001157600080fd5b506040518060400160405280600781526020017f4d79546f6b656e000000000000000000000000000000000000000000000000008152506040518060400160405280600381526020017f4d544b000000000000000000000000000000000000000000000000000000000081525081600390805190602001906200009692919062000346565b508060049080519060200190620000af92919062000346565b505050620000d2620000c6620000f560201b60201c565b620000fd60201b60201c565b620000e733620f4240620001c360201b60201c565b600a600681905550620005a2565b600033905090565b6000600560009054906101000a900473ffffffffffffffffffffffffffffffffffffffff16905081600560006101000a81548173ffffffffffffffffffffffffffffffffffffffff021916908373ffffffffffffffffffffffffffffffffffffffff1602179055508173ffffffffffffffffffffffffffffffffffffffff168173ffffffffffffffffffffffffffffffffffffffff167f8be0079c531659141344cd1fd0a4f28419497f9722a3daafe3b4186f6b6457e060405160405180910390a35050565b600073ffffffffffffffffffffffffffffffffffffffff168273ffffffffffffffffffffffffffffffffffffffff16141562000236576040517f08c379a00000000000000000000000000000000000000000000000000000000081526004016200022d906200042e565b60405180910390fd5b6200024a600083836200033c60201b60201c565b80600260008282546200025e91906200047e565b92505081905550806000808473ffffffffffffffffffffffffffffffffffffffff1673ffffffffffffffffffffffffffffffffffffffff1681526020019081526020016000206000828254620002b591906200047e565b925050819055508173ffffffffffffffffffffffffffffffffffffffff16600073ffffffffffffffffffffffffffffffffffffffff167fddf252ad1be2c89b69c2b068fc378daa952ba7f163c4a11628f55a4df523b3ef836040516200031c919062000450565b60405180910390a362000338600083836200034160201b60201c565b5050565b505050565b505050565b8280546200035490620004e5565b90600052602060002090601f016020900481019282620003785760008555620003c4565b82601f106200039357805160ff1916838001178555620003c4565b82800160010185558215620003c4579182015b82811115620003c3578251825591602001919060010190620003a6565b5b509050620003d39190620003d7565b5090565b5b80821115620003f2576000816000905550600101620003d8565b5090565b600062000405601f836200046d565b9150620004128262000579565b602082019050919050565b6200042881620004db565b82525050565b600060208201905081810360008301526200044981620003f6565b9050919050565b60006020820190506200046760008301846200041d565b92915050565b600082825260208201905092915050565b60006200048b82620004db565b91506200049883620004db565b9250827fffffffffffffffffffffffffffffffffffffffffffffffffffffffffffffffff03821115620004d057620004cf6200051b565b5b828201905092915050565b6000819050919050565b60006002820490506001821680620004fe57607f821691505b602082108114156200051557620005146200054a565b5b50919050565b7f4e487b7100000000000000000000000000000000000000000000000000000000600052601160045260246000fd5b7f4e487b7100000000000000000000000000000000000000000000000000000000600052602260045260246000fd5b7f45524332303a206d696e7420746f20746865207a65726f206164647265737300600082015250565b61236980620005b26000396000f3fe608060405234801561001057600080fd5b50600436106101585760003560e01c806370a08231116100c3578063a457c2d71161007c578063a457c2d7146103a5578063a9059cbb146103d5578063be74264d14610405578063dd62ed3e14610423578063f05c5fed14610453578063f2fde38b1461046f57610158565b806370a08231146102f5578063715018a61461032557806379cc67901461032f5780637fd6f15c1461034b5780638da5cb5b1461036957806395d89b411461038757610158565b8063313ce56711610115578063313ce56714610233578063395093511461025157806340c10f191461028157806342966c681461029d578063587f5ed7146102b95780635df45a37146102d757610158565b80630392e72d1461015d57806306fdde0314610167578063095ea7b31461018557806318160ddd146101b557806323b872dd146101d35780632edc505214610203575b600080fd5b61016561048b565b005b61016f610524565b60405161017c9190611a7f565b60405180910390f35b61019f600480360381019061019a919061177d565b6105b6565b6040516101ac9190611a64565b60405180910390f35b6101bd6105d4565b6040516101ca9190611c61565b60405180910390f35b6101ed60048036038101906101e8919061172a565b6105de565b6040516101fa9190611a64565b60405180910390f35b61021d6004803603810190610218919061177d565b6106d6565b60405161022a9190611a64565b60405180910390f35b61023b6107b0565b6040516102489190611c7c565b60405180910390f35b61026b6004803603810190610266919061177d565b6107b9565b6040516102789190611a64565b60405180910390f35b61029b6004803603810190610296919061177d565b610865565b005b6102b760048036038101906102b291906117bd565b6108ef565b005b6102c1610903565b6040516102ce9190611c61565b60405180910390f35b6102df610909565b6040516102ec9190611c61565b60405180910390f35b61030f600480360381019061030a91906116bd565b610913565b60405161031c9190611c61565b60405180910390f35b61032d61095b565b005b6103496004803603810190610344919061177d565b6109e3565b005b610353610a5e565b6040516103609190611c61565b60405180910390f35b610371610a64565b60405161037e9190611a49565b60405180910390f35b61038f610a8e565b60405161039c9190611a7f565b60405180910390f35b6103bf60048036038101906103ba919061177d565b610b20565b6040516103cc9190611a64565b60405180910390f35b6103ef60048036038101906103ea919061177d565b610c0b565b6040516103fc9190611a64565b60405180910390f35b61040d610c29565b60405161041a9190611c61565b60405180910390f35b61043d600480360381019061043891906116ea565b610c33565b60405161044a9190611c61565b60405180910390f35b61046d600480360381019061046891906117bd565b610cba565b005b610489600480360381019061048491906116bd565b610d40565b005b610493610e38565b73ffffffffffffffffffffffffffffffffffffffff166104b1610a64565b73ffffffffffffffffffffffffffffffffffffffff1614610507576040517f08c379a00000000000000000000000000000000000000000000000000000000081526004016104fe90611b61565b60405180910390fd5b61051a610512610a64565b600754610865565b6000600781905550565b60606003805461053390611e50565b80601f016020809104026020016040519081016040528092919081815260200182805461055f90611e50565b80156105ac5780601f10610581576101008083540402835291602001916105ac565b820191906000526020600020905b81548152906001019060200180831161058f57829003601f168201915b5050505050905090565b60006105ca6105c3610e38565b8484610e40565b6001905092915050565b6000600254905090565b60006105eb84848461100b565b6000600160008673ffffffffffffffffffffffffffffffffffffffff1673ffffffffffffffffffffffffffffffffffffffff1681526020019081526020016000206000610636610e38565b73ffffffffffffffffffffffffffffffffffffffff1673ffffffffffffffffffffffffffffffffffffffff168152602001908152602001600020549050828110156106b6576040517f08c379a00000000000000000000000000000000000000000000000000000000081526004016106ad90611b41565b60405180910390fd5b6106ca856106c2610e38565b858403610e40565b60019150509392505050565b6000816106e233610913565b1015610723576040517f08c379a000000000000000000000000000000000000000000000000000000000815260040161071a90611c01565b60405180910390fd5b6064600654836107339190611d3a565b61073d9190611d09565b6007600082825461074e9190611cb3565b92505081905550610783836064600654856107699190611d3a565b6107739190611d09565b8461077e9190611d94565b610c0b565b506107a66064600654846107979190611d3a565b6107a19190611d09565b6108ef565b6001905092915050565b60006012905090565b600061085b6107c6610e38565b8484600160006107d4610e38565b73ffffffffffffffffffffffffffffffffffffffff1673ffffffffffffffffffffffffffffffffffffffff16815260200190815260200160002060008873ffffffffffffffffffffffffffffffffffffffff1673ffffffffffffffffffffffffffffffffffffffff168152602001908152602001600020546108569190611cb3565b610e40565b6001905092915050565b61086d610e38565b73ffffffffffffffffffffffffffffffffffffffff1661088b610a64565b73ffffffffffffffffffffffffffffffffffffffff16146108e1576040517f08c379a00000000000000000000000000000000000000000000000000000000081526004016108d890611b61565b60405180910390fd5b6108eb828261128c565b5050565b6109006108fa610e38565b826113ec565b50565b60075481565b6000600754905090565b60008060008373ffffffffffffffffffffffffffffffffffffffff1673ffffffffffffffffffffffffffffffffffffffff168152602001908152602001600020549050919050565b610963610e38565b73ffffffffffffffffffffffffffffffffffffffff16610981610a64565b73ffffffffffffffffffffffffffffffffffffffff16146109d7576040517f08c379a00000000000000000000000000000000000000000000000000000000081526004016109ce90611b61565b60405180910390fd5b6109e160006115c3565b565b60006109f6836109f1610e38565b610c33565b905081811015610a3b576040517f08c379a0000000000000000000000000000000000000000000000000000000008152600401610a3290611b81565b60405180910390fd5b610a4f83610a47610e38565b848403610e40565b610a5983836113ec565b505050565b60065481565b6000600560009054906101000a900473ffffffffffffffffffffffffffffffffffffffff16905090565b606060048054610a9d90611e50565b80601f0160208091040260200160405190810160405280929190818152602001828054610ac990611e50565b8015610b165780601f10610aeb57610100808354040283529160200191610b16565b820191906000526020600020905b815481529060010190602001808311610af957829003601f168201915b5050505050905090565b60008060016000610b2f610e38565b73ffffffffffffffffffffffffffffffffffffffff1673ffffffffffffffffffffffffffffffffffffffff16815260200190815260200160002060008573ffffffffffffffffffffffffffffffffffffffff1673ffffffffffffffffffffffffffffffffffffffff16815260200190815260200160002054905082811015610bec576040517f08c379a0000000000000000000000000000000000000000000000000000000008152600401610be390611c21565b60405180910390fd5b610c00610bf7610e38565b85858403610e40565b600191505092915050565b6000610c1f610c18610e38565b848461100b565b6001905092915050565b6000600654905090565b6000600160008473ffffffffffffffffffffffffffffffffffffffff1673ffffffffffffffffffffffffffffffffffffffff16815260200190815260200160002060008373ffffffffffffffffffffffffffffffffffffffff1673ffffffffffffffffffffffffffffffffffffffff16815260200190815260200160002054905092915050565b610cc2610e38565b73ffffffffffffffffffffffffffffffffffffffff16610ce0610a64565b73ffffffffffffffffffffffffffffffffffffffff1614610d36576040517f08c379a0000000000000000000000000000000000000000000000000000000008152600401610d2d90611b61565b60405180910390fd5b8060068190555050565b610d48610e38565b73ffffffffffffffffffffffffffffffffffffffff16610d66610a64565b73ffffffffffffffffffffffffffffffffffffffff1614610dbc576040517f08c379a0000000000000000000000000000000000000000000000000000000008152600401610db390611b61565b60405180910390fd5b600073ffffffffffffffffffffffffffffffffffffffff168173ffffffffffffffffffffffffffffffffffffffff161415610e2c576040517f08c379a0000000000000000000000000000000000000000000000000000000008152600401610e2390611ae1565b60405180910390fd5b610e35816115c3565b50565b600033905090565b600073ffffffffffffffffffffffffffffffffffffffff168373ffffffffffffffffffffffffffffffffffffffff161415610eb0576040517f08c379a0000000000000000000000000000000000000000000000000000000008152600401610ea790611be1565b60405180910390fd5b600073ffffffffffffffffffffffffffffffffffffffff168273ffffffffffffffffffffffffffffffffffffffff161415610f20576040517f08c379a0000000000000000000000000000000000000000000000000000000008152600401610f1790611b01565b60405180910390fd5b80600160008573ffffffffffffffffffffffffffffffffffffffff1673ffffffffffffffffffffffffffffffffffffffff16815260200190815260200160002060008473ffffffffffffffffffffffffffffffffffffffff1673ffffffffffffffffffffffffffffffffffffffff168152602001908152602001600020819055508173ffffffffffffffffffffffffffffffffffffffff168373ffffffffffffffffffffffffffffffffffffffff167f8c5be1e5ebec7d5bd14f71427d1e84f3dd0314c0f7b2291e5b200ac8c7c3b92583604051610ffe9190611c61565b60405180910390a3505050565b600073ffffffffffffffffffffffffffffffffffffffff168373ffffffffffffffffffffffffffffffffffffffff16141561107b576040517f08c379a000000000000000000000000000000000000000000000000000000000815260040161107290611bc1565b60405180910390fd5b600073ffffffffffffffffffffffffffffffffffffffff168273ffffffffffffffffffffffffffffffffffffffff1614156110eb576040517f08c379a00000000000000000000000000000000000000000000000000000000081526004016110e290611aa1565b60405180910390fd5b6110f6838383611689565b60008060008573ffffffffffffffffffffffffffffffffffffffff1673ffffffffffffffffffffffffffffffffffffffff1681526020019081526020016000205490508181101561117c576040517f08c379a000000000000000000000000000000000000000000000000000000000815260040161117390611b21565b60405180910390fd5b8181036000808673ffffffffffffffffffffffffffffffffffffffff1673ffffffffffffffffffffffffffffffffffffffff16815260200190815260200160002081905550816000808573ffffffffffffffffffffffffffffffffffffffff1673ffffffffffffffffffffffffffffffffffffffff168152602001908152602001600020600082825461120f9190611cb3565b925050819055508273ffffffffffffffffffffffffffffffffffffffff168473ffffffffffffffffffffffffffffffffffffffff167fddf252ad1be2c89b69c2b068fc378daa952ba7f163c4a11628f55a4df523b3ef846040516112739190611c61565b60405180910390a361128684848461168e565b50505050565b600073ffffffffffffffffffffffffffffffffffffffff168273ffffffffffffffffffffffffffffffffffffffff1614156112fc576040517f08c379a00000000000000000000000000000000000000000000000000000000081526004016112f390611c41565b60405180910390fd5b61130860008383611689565b806002600082825461131a9190611cb3565b92505081905550806000808473ffffffffffffffffffffffffffffffffffffffff1673ffffffffffffffffffffffffffffffffffffffff168152602001908152602001600020600082825461136f9190611cb3565b925050819055508173ffffffffffffffffffffffffffffffffffffffff16600073ffffffffffffffffffffffffffffffffffffffff167fddf252ad1be2c89b69c2b068fc378daa952ba7f163c4a11628f55a4df523b3ef836040516113d49190611c61565b60405180910390a36113e86000838361168e565b5050565b600073ffffffffffffffffffffffffffffffffffffffff168273ffffffffffffffffffffffffffffffffffffffff16141561145c576040517f08c379a000000000000000000000000000000000000000000000000000000000815260040161145390611ba1565b60405180910390fd5b61146882600083611689565b60008060008473ffffffffffffffffffffffffffffffffffffffff1673ffffffffffffffffffffffffffffffffffffffff168152602001908152602001600020549050818110156114ee576040517f08c379a00000000000000000000000000000000000000000000000000000000081526004016114e590611ac1565b60405180910390fd5b8181036000808573ffffffffffffffffffffffffffffffffffffffff1673ffffffffffffffffffffffffffffffffffffffff1681526020019081526020016000208190555081600260008282546115459190611d94565b92505081905550600073ffffffffffffffffffffffffffffffffffffffff168373ffffffffffffffffffffffffffffffffffffffff167fddf252ad1be2c89b69c2b068fc378daa952ba7f163c4a11628f55a4df523b3ef846040516115aa9190611c61565b60405180910390a36115be8360008461168e565b505050565b6000600560009054906101000a900473ffffffffffffffffffffffffffffffffffffffff16905081600560006101000a81548173ffffffffffffffffffffffffffffffffffffffff021916908373ffffffffffffffffffffffffffffffffffffffff1602179055508173ffffffffffffffffffffffffffffffffffffffff168173ffffffffffffffffffffffffffffffffffffffff167f8be0079c531659141344cd1fd0a4f28419497f9722a3daafe3b4186f6b6457e060405160405180910390a35050565b505050565b505050565b6000813590506116a281612305565b92915050565b6000813590506116b78161231c565b92915050565b6000602082840312156116d3576116d2611f0f565b5b60006116e184828501611693565b91505092915050565b6000806040838503121561170157611700611f0f565b5b600061170f85828601611693565b925050602061172085828601611693565b9150509250929050565b60008060006060848603121561174357611742611f0f565b5b600061175186828701611693565b935050602061176286828701611693565b9250506040611773868287016116a8565b9150509250925092565b6000806040838503121561179457611793611f0f565b5b60006117a285828601611693565b92505060206117b3858286016116a8565b9150509250929050565b6000602082840312156117d3576117d2611f0f565b5b60006117e1848285016116a8565b91505092915050565b6117f381611dc8565b82525050565b61180281611dda565b82525050565b600061181382611c97565b61181d8185611ca2565b935061182d818560208601611e1d565b61183681611f14565b840191505092915050565b600061184e602383611ca2565b915061185982611f25565b604082019050919050565b6000611871602283611ca2565b915061187c82611f74565b604082019050919050565b6000611894602683611ca2565b915061189f82611fc3565b604082019050919050565b60006118b7602283611ca2565b91506118c282612012565b604082019050919050565b60006118da602683611ca2565b91506118e582612061565b604082019050919050565b60006118fd602883611ca2565b9150611908826120b0565b604082019050919050565b6000611920602083611ca2565b915061192b826120ff565b602082019050919050565b6000611943602483611ca2565b915061194e82612128565b604082019050919050565b6000611966602183611ca2565b915061197182612177565b604082019050919050565b6000611989602583611ca2565b9150611994826121c6565b604082019050919050565b60006119ac602483611ca2565b91506119b782612215565b604082019050919050565b60006119cf601183611ca2565b91506119da82612264565b602082019050919050565b60006119f2602583611ca2565b91506119fd8261228d565b604082019050919050565b6000611a15601f83611ca2565b9150611a20826122dc565b602082019050919050565b611a3481611e06565b82525050565b611a4381611e10565b82525050565b6000602082019050611a5e60008301846117ea565b92915050565b6000602082019050611a7960008301846117f9565b92915050565b60006020820190508181036000830152611a998184611808565b905092915050565b60006020820190508181036000830152611aba81611841565b9050919050565b60006020820190508181036000830152611ada81611864565b9050919050565b60006020820190508181036000830152611afa81611887565b9050919050565b60006020820190508181036000830152611b1a816118aa565b9050919050565b60006020820190508181036000830152611b3a816118cd565b9050919050565b60006020820190508181036000830152611b5a816118f0565b9050919050565b60006020820190508181036000830152611b7a81611913565b9050919050565b60006020820190508181036000830152611b9a81611936565b9050919050565b60006020820190508181036000830152611bba81611959565b9050919050565b60006020820190508181036000830152611bda8161197c565b9050919050565b60006020820190508181036000830152611bfa8161199f565b9050919050565b60006020820190508181036000830152611c1a816119c2565b9050919050565b60006020820190508181036000830152611c3a816119e5565b9050919050565b60006020820190508181036000830152611c5a81611a08565b9050919050565b6000602082019050611c766000830184611a2b565b92915050565b6000602082019050611c916000830184611a3a565b92915050565b600081519050919050565b600082825260208201905092915050565b6000611cbe82611e06565b9150611cc983611e06565b9250827fffffffffffffffffffffffffffffffffffffffffffffffffffffffffffffffff03821115611cfe57611cfd611e82565b5b828201905092915050565b6000611d1482611e06565b9150611d1f83611e06565b925082611d2f57611d2e611eb1565b5b828204905092915050565b6000611d4582611e06565b9150611d5083611e06565b9250817fffffffffffffffffffffffffffffffffffffffffffffffffffffffffffffffff0483118215151615611d8957611d88611e82565b5b828202905092915050565b6000611d9f82611e06565b9150611daa83611e06565b925082821015611dbd57611dbc611e82565b5b828203905092915050565b6000611dd382611de6565b9050919050565b60008115159050919050565b600073ffffffffffffffffffffffffffffffffffffffff82169050919050565b6000819050919050565b600060ff82169050919050565b60005b83811015611e3b578082015181840152602081019050611e20565b83811115611e4a576000848401525b50505050565b60006002820490506001821680611e6857607f821691505b60208210811415611e7c57611e7b611ee0565b5b50919050565b7f4e487b7100000000000000000000000000000000000000000000000000000000600052601160045260246000fd5b7f4e487b7100000000000000000000000000000000000000000000000000000000600052601260045260246000fd5b7f4e487b7100000000000000000000000000000000000000000000000000000000600052602260045260246000fd5b600080fd5b6000601f19601f8301169050919050565b7f45524332303a207472616e7366657220746f20746865207a65726f206164647260008201527f6573730000000000000000000000000000000000000000000000000000000000602082015250565b7f45524332303a206275726e20616d6f756e7420657863656564732062616c616e60008201527f6365000000000000000000000000000000000000000000000000000000000000602082015250565b7f4f776e61626c653a206e6577206f776e657220697320746865207a65726f206160008201527f6464726573730000000000000000000000000000000000000000000000000000602082015250565b7f45524332303a20617070726f766520746f20746865207a65726f20616464726560008201527f7373000000000000000000000000000000000000000000000000000000000000602082015250565b7f45524332303a207472616e7366657220616d6f756e742065786365656473206260008201527f616c616e63650000000000000000000000000000000000000000000000000000602082015250565b7f45524332303a207472616e7366657220616d6f756e742065786365656473206160008201527f6c6c6f77616e6365000000000000000000000000000000000000000000000000602082015250565b7f4f776e61626c653a2063616c6c6572206973206e6f7420746865206f776e6572600082015250565b7f45524332303a206275726e20616d6f756e74206578636565647320616c6c6f7760008201527f616e636500000000000000000000000000000000000000000000000000000000602082015250565b7f45524332303a206275726e2066726f6d20746865207a65726f2061646472657360008201527f7300000000000000000000000000000000000000000000000000000000000000602082015250565b7f45524332303a207472616e736665722066726f6d20746865207a65726f20616460008201527f6472657373000000000000000000000000000000000000000000000000000000602082015250565b7f45524332303a20617070726f76652066726f6d20746865207a65726f2061646460008201527f7265737300000000000000000000000000000000000000000000000000000000602082015250565b7f4e6f7420656e6f75676820746f6b656e73000000000000000000000000000000600082015250565b7f45524332303a2064656372656173656420616c6c6f77616e63652062656c6f7760008201527f207a65726f000000000000000000000000000000000000000000000000000000602082015250565b7f45524332303a206d696e7420746f20746865207a65726f206164647265737300600082015250565b61230e81611dc8565b811461231957600080fd5b50565b61232581611e06565b811461233057600080fd5b5056fea2646970667358221220bae90e534ef4334aac1c26154b3083c98c5bc69342bb93d3897ca7c1eec14efb64736f6c63430008070033",
  "linkReferences": {},
  "deployedLinkReferences": {}
}